:020000040800F2
:1000000000280020A9120008710D0008770D0008D3
:100010007D0D0008830D0008890D00080000000018
:100020000000000000000000000000008F0D00082C
:100030009B0D000800000000A70D0008B30D00088C
:10004000F1120008F1120008F1120008F112000884
:10005000F1120008F1120008F1120008F112000874
:10006000F1120008F1120008F1120008F112000864
:10007000F1120008F1120008F1120008F112000854
:10008000F1120008F1120008F1120008F112000844
:10009000F1120008F1120008F1120008F112000834
:1000A000F1120008F1120008F1120008F112000824
:1000B000C10D0008F112000800000000F112000854
:1000C000F11200080000000000000000F11200081A
:1000D00000000000F1120008F1120008000000000A
:1000E000F1120008F1120008F112000800000000EF
:1000F0000000000000000000000000000000000000
:0C01000000000000000000005FF808F1A3
:10010C0010B5054C237833B9044B13B10448AFF345
:10011C0000800123237010BD180000200000000097
:10012C005429000808B5034B1BB103490348AFF32E
:10013C00008008BD000000001C00002054290008AD
:10014C0080B5C8B000AF3B1D186007F10803424AE8
:10015C00184611464FF48C731A4602F0DFFB07F178
:10016C0008013B1D1A681346DB009B1A9B000B44CD
:10017C001B68DBB21A460821384801F0B6FB07F1C0
:10018C0008013B1D1A681346DB009B1A9B000B44AD
:10019C0004331B68DBB21A461021304801F0A5FB72
:1001AC0007F108013B1D1A681346DB009B1A9B00E4
:1001BC000B4408331B68DBB21A462021274801F098
:1001CC0094FB07F108013B1D1A681346DB009B1AD0
:1001DC009B000B440C331B68DBB21A4640211F48B2
:1001EC0001F083FB07F108013B1D1A681346DB0085
:1001FC009B1A9B000B4410331B68DBB21A46802100
:10020C00164801F072FB07F108013B1D1A681346F2
:10021C00DB009B1A9B000B4414331B68DBB21A46A1
:10022C004FF480710D4801F060FB07F108013B1D94
:10023C001A681346DB009B1A9B000B4418331B688F
:10024C00DBB21A464FF40071044801F04EFB00BFBC
:10025C0007F59077BD4680BD6C290008000C014065
:10026C0080B582B000AF78607B681B68032B00F20E
:10027C00958001A252F823F095020008DB020008D9
:10028C0021030008670300087B681B685A1C7B6805
:10029C001A6001224FF48061434801F026FB0022D2
:1002AC004FF40061404801F020FB01224FF48051D3
:1002BC003D4801F01AFB01224FF400513A4801F07D
:1002CC0014FB3A4B5B681846FFF73AFF67E07B6814
:1002DC001B685A1C7B681A6001224FF480613248FB
:1002EC0001F003FB01224FF400612F4801F0FDFAED
:1002FC0000224FF480512C4801F0F7FA01224FF400
:10030C000051294801F0F1FA284B9B681846FFF779
:10031C0017FF44E07B681B685A1C7B681A6001223B
:10032C004FF48061204801F0E0FA01224FF40061A3
:10033C001D4801F0DAFA01224FF480511A4801F0FD
:10034C00D4FA00224FF40051174801F0CEFA174BA3
:10035C00DB681846FFF7F4FE21E07B6800221A6088
:10036C0000224FF48061104801F0BFFA01224FF4D3
:10037C0000610D4801F0B9FA01224FF480510A488E
:10038C0001F0B3FA01224FF40051074801F0ADFA25
:10039C00064B1B681846FFF7D3FE00E000BF00BFFA
:1003AC000837BD4680BD00BF000C01403400002062
:1003BC0080B500AF00224FF480610E4801F095FA31
:1003CC0001224FF400610B4801F08FFA01224FF427
:1003DC008051084801F089FA01224FF40051054878
:1003EC0001F083FA044B1B681846FFF7A9FE00BF07
:1003FC0080BD00BF000C01403400002080B483B0ED
:10040C0000AF786039607B682B4A82FB0312921034
:10041C00DB17D31A294A13607968274B83FB012316
:10042C009A10CB17D21A13469B0013445B00CA1ABE
:10043C00224B5A603B68204A82FB03129210DB1756
:10044C00D31A1E4A936039681B4B83FB01239A1005
:10045C00CB17D21A13469B0013445B00CA1A174BD6
:10046C00DA60164BDB68002B07DC144B0022DA60D9
:10047C00124B9B68013B114A9360104B9B68002BFD
:10048C0002DC0E4B00229A600C4B5B68002B07DCE5
:10049C000A4B1B68013B094A1360084B00225A6047
:1004AC00064B1B68002B02DC044B00221A6000BFB9
:1004BC000C37BD4680BC704767666666340000200A
:1004CC00B0B584B000AF9E4B1B78032B00F22B8190
:1004DC0001A252F823F000BFF50400082105000822
:1004EC00D10500087F060008964B1B68012B04D130
:1004FC0000F0F2FC934B00221A6000F049FD002042
:10050C0000F0C2F90346012B40F00F818C4B012205
:10051C001A700AE1012000F0B7F90346012B19D13A
:10052C0000F082FC0346884A82FB03129211DB170F
:10053C00D31AFB60FB680133FB60FB68632B01DDA6
:10054C000023FB60FB684FF47A7202FB03F318463E
:10055C0000F040FC00F068FC03467B4A82FB03126F
:10056C009211DB17D31A02211846FFF747FF00F050
:10057C009DFC00F02DFE022000F086F90346012BB5
:10058C0015D100F051FC044600F058FC054600F073
:10059C005FFC03462B449C4209D000F045FC04460A
:1005AC0000F04CFC0346E31A184600F02FFC002028
:1005BC0000F06AF90346012B40F0B980604B02222F
:1005CC001A70B4E0012000F05FF90346012B19D139
:1005DC0000F034FC03465C4A82FB03129211DB17D9
:1005EC00D31ABB60BB680133BB60BB68632B01DDF6
:1005FC000023BB60BB684FF47A7202FB03F318460E
:10060C0000F0F6FB00F01AFC03464F4A82FB031283
:10061C009211DB17D31A03211846FFF7EFFE00F0F7
:10062C0045FC00F0F7FD022000F02EF90346012BEB
:10063C0015D100F0F9FB044600F000FC054600F073
:10064C0007FC03462B449C4209D000F0EDFB04460A
:10065C0000F0F4FB0346E31A184600F0D7FB002029
:10066C0000F012F90346012B63D1354B03221A70AB
:10067C005FE0012000F008F90346012B19D100F0CE
:10068C00E7FB0346304A82FB03129211DB17D31AA5
:10069C007B607B6801337B607B68632B01DD00230F
:1006AC007B607B684FF47A7202FB03F3184600F010
:1006BC00ADFB00F0CDFB0346234A82FB03129211E3
:1006CC00DB17D31A04211846FFF798FE00F0EEFB57
:1006DC0000F0C2FD022000F0D7F80346012B15D123
:1006EC0000F0A2FB044600F0A9FB054600F0B0FBAD
:1006FC0003462B449C4209D000F0AAFB044600F0B0
:10070C009DFB03462344184600F064FB002000F0D8
:10071C00BBF80346012B0ED1094B00221A70094B72
:10072C0001221A6007E000BF06E000BF04E000BF32
:10073C0002E000BF00E000BF00BF1037BD46B0BDF7
:10074C004400002048000020D34D621080B582B0D8
:10075C0000AF00237B607AE0414A7B681344197830
:10076C00404A7B6813440A461A703F4A7B6813441C
:10077C0019783B4A7B6813440A461A703B4A7B68DB
:10078C0032F8133019463A4801F098F803461946E6
:10079C00354A7B6813440A461A70324A7B68134404
:1007AC001A782F497B680B441B789A424CD12C4AFF
:1007BC007B6813441A782C497B680B441B789A424B
:1007CC0042D12C4A7B6813441A7827497B680B4426
:1007DC001B789A4219D0244A7B6813441978254A0D
:1007EC007B6813440A461A701F4A7B6813441B78B3
:1007FC00012B29D1204A7B68134401221A701F4A0D
:10080C007B68002122F813101EE01C4A7B6832F82A
:10081C001330013399B2194A7B6822F81310174A26
:10082C007B6832F81330632B0ED9154A7B6813445E
:10083C0001221A70114A7B68002122F81310114B07
:10084C001B6801330F4A13607B6801337B607B6844
:10085C00022B81DD00BF00BF0837BD4680BD00BF45
:10086C005400002050000020580000200000002000
:10087C00000C01405C0000204C00002064000020B3
:10088C00600000206C00002080B483B000AF0346F1
:10089C00FB71FB79022B01D900230BE0FB79084A91
:1008AC00D35C012B05D1FB79054A0021D1540123DE
:1008BC0000E0002318460C37BD4680BC704700BFD3
:1008CC004C00002080B500AF00F00EFD00F01AF8CF
:1008DC0000F0B4F800F052F8094801F063FC41F262
:1008EC00883000F077FA4FF4FA6000F081FA40F6A5
:1008FC00B83000F08BFA00F0EFFAFFF7E1FDFCE7FF
:10090C00A400002080B590B000AF07F11803282296
:10091C000021184602F010F83B1D00221A605A60A4
:10092C009A60DA601A610223BB610123BB62102357
:10093C00FB6200237B6307F11803184601F006F8ED
:10094C000346002B01D000F0F7F80F237B60002347
:10095C00BB600023FB6000233B6100237B613B1DDC
:10096C000021184601F072FA0346002B01D000F06A
:10097C00E3F800BF4037BD4680BD000080B586B0AF
:10098C0000AF07F1080300221A605A609A60DA601F
:10099C003B4600221A605A60254B4FF080421A6089
:1009AC00234B41F63F725A60214B00229A60204B38
:1009BC000922DA601E4B00221A611D4B00229A613B
:1009CC001B4801F09FFB0346002B01D000F0B4F84C
:1009DC004FF48053BB6007F108031946144801F02B
:1009EC0035FD0346002B01D000F0A6F800233B6038
:1009FC0000237B603B4619460D4801F001FF03467E
:100A0C00002B01D000F098F8094B5B680133084AC1
:100A1C00D268013202FB03F3064AA2FB03235B0AF2
:100A2C001A46054B1A6000BF1837BD4680BD00BF83
:100A3C00A4000020D34D62107000002080B586B059
:100A4C0000AF07F1080300221A605A609A60DA605E
:100A5C00284B9B69274A43F004039361254B9B6900
:100A6C0003F004037B607B68224B9B69214A43F0B3
:100A7C00080393611F4B9B6903F008033B603B68C1
:100A8C00012240F6FE711C4800F02FFF012243F6B4
:100A9C00F8711A4800F029FF40F6FE73BB60012381
:100AAC00FB6000233B6102237B6107F108031946BD
:100ABC00114800F089FD0723BB600023FB60022373
:100ACC003B6107F1080319460C4800F07DFD43F625
:100ADC00F873BB600123FB6000233B6102237B6145
:100AEC0007F108031946054800F06EFD00BF1837E2
:100AFC00BD4680BD0010024000080140000C0140C2
:100B0C0080B582B000AF78607B681B68B3F1804F12
:100B1C0003D1FFF71BFE00F089F800BF0837BD4674
:100B2C0080BD000080B400AF024B1B681846BD4668
:100B3C0080BC70477000002080B400AF72B600BF5C
:100B4C00FEE7000080B483B000AF786039607A684B
:100B5C003B6892FBF3F3054A1360054B00221A60C5
:100B6C0000BF0C37BD4680BC704700BF740000202E
:100B7C008400002080B483B000AF786039607A685C
:100B8C003B6892FBF3F3054A1360054B00221A6095
:100B9C0000BF0C37BD4680BC704700BF78000020FA
:100BAC008800002080B483B000AF786039607A6828
:100BBC003B6892FBF3F3054A1360054B00221A6065
:100BCC0000BF0C37BD4680BC704700BF7C000020C6
:100BDC008C00002080B483B000AF786039607A68F4
:100BEC003B6892FBF3F3054A1360054B00221A6035
:100BFC0000BF0C37BD4680BC704700BF8000002092
:100C0C009000002080B400AF024B1B681846BD4614
:100C1C0080BC70477400002080B400AF024B1B688E
:100C2C001846BD4680BC70477C00002080B400AFE5
:100C3C00194B1B68013B184A1360184B1B68013B8E
:100C4C00164A1360164B1B68013B154A1360154B73
:100C5C001B68013B134A13600F4B1B68002B02DC13
:100C6C00114B01221A600E4B1B68002B02DC0F4B40
:100C7C0001221A60094B1B68002B02DC0C4B012271
:100C8C001A60084B1B68002B02DC0A4B01221A600D
:100C9C0000BFBD4680BC7047740000207C00002063
:100CAC0078000020800000208400002088000020B4
:100CBC008C0000209000002080B485B000AF154B54
:100CCC009B69144A43F001039361124B9B6903F037
:100CDC000103BB60BB680F4BDB690E4A43F08053CA
:100CEC00D3610C4BDB6903F080537B607B680A4B50
:100CFC005B68FB60FB6823F0E063FB60FB6843F020
:100D0C008063FB60044AFB68536000BF1437BD4628
:100D1C0080BC7047001002400000014080B584B0D8
:100D2C0000AF78607B681B68B3F1804F13D10C4B1C
:100D3C00DB690B4A43F00103D361094BDB6903F018
:100D4C000103FB60FB68002200211C2000F005FC65
:100D5C001C2000F01EFC00BF1037BD4680BD00BF3C
:100D6C000010024080B400AFFEE780B400AFFEE795
:100D7C0080B400AFFEE780B400AFFEE780B400AFF4
:100D8C00FEE780B400AF00BFBD4680BC704780B4A6
:100D9C0000AF00BFBD4680BC704780B400AF00BF41
:100DAC00BD4680BC704780B500AF00F0E3FA00BFD1
:100DBC0080BD000080B500AF024801F03FFA00BFD3
:100DCC0080BD00BFA400002080B400AF00BFBD46B2
:100DDC0080BC704780B483B000AF7860034A7B68F6
:100DEC00136000BF0C37BD4680BC704794000020D8
:100DFC0080B483B000AF7860034A7B68136000BF97
:100E0C000C37BD4680BC70479800002080B483B07E
:100E1C0000AF7860034A7B68136000BF0C37BD4697
:100E2C0080BC70479C00002080B400AF024B1B6854
:100E3C001846BD4680BC70479400002080B400AFBB
:100E4C00024B1B681846BD4680BC704798000020BA
:100E5C0080B400AF024B1B681846BD4680BC70477F
:100E6C009C00002080B582B000AF03460A46FB8090
:100E7C001346BB800B4B1B68012B0ED1FFF752FEA8
:100E8C00034619466420FFF775FEFA88BB881343A6
:100E9C009BB21946044800F040FD00BF0837BD4620
:100EAC0080BD00BF880000200008014080B500AF65
:100EBC00074B1B68012B09D1FFF734FE034619467B
:100ECC006420FFF787FE0348FFF7CAF900BF80BD17
:100EDC0090000020EC00002098B500AF0022022109
:100EEC00254800F002FD01220C21234800F0FDFCF6
:100EFC0000224021204800F0F8FC012230211E483D
:100F0C0000F0F3FC00224FF420711B4800F0EDFCC4
:100F1C0001224FF4A061184800F0E7FC174B1C6845
:100F2C00FFF700FE034619462046FFF70BFE144B55
:100F3C001C68FFF7F7FD034619462046FFF732FE03
:100F4C00FFF7F0FD034619466420FFF713FEFFF789
:100F5C00E9FD034619466420FFF73CFEFFF728FA2B
:100F6C00084B00221A60084B00221A70074B022211
:100F7C001A7000BF98BD00BF00080140940000200B
:100F8C009C000020EC000020A00000200C000020A1
:100F9C00B0B500AFFFF736FE0446FFF7C3FD0346BE
:100FAC0003FB04F3814A82FB03129211DB17D41A60
:100FBC00FFF732FE0546FFF7B5FD034603FB05F3CD
:100FCC007A4A82FB03129211DB17D31A1946204678
:100FDC00FFF714FAFFF76AFF754B1B78022B46D00C
:100FEC00022B64DC002B02D0012B20D05FE000220E
:100FFC000221704800F079FC4FF480718020FFF7DB
:10100C0031FF01220C216B4800F06FFC6A4B1B680E
:10101C00012B4ED1664B02221A70684B1C68FFF7ED
:10102C0081FD034619462046FFF78CFD41E0002266
:10103C000421604800F059FC4FF480718020FFF7C8
:10104C0011FF01220A215B4800F04FFC5A4B1B6830
:10105C00012B30D1564B00221A70594B1C68FFF7EC
:10106C0061FD034619462046FFF76CFD23E0002284
:10107C000821504800F039FC4FF480718020FFF7B4
:10108C00F1FE012206214B4800F02FFC4A4B1B6855
:10109C00012B12D1464B01221A704A4B1C68FFF7E8
:1010AC0041FD034619462046FFF74CFD05E000BF05
:1010BC0004E000BF02E000BF00E000BF424B1B7821
:1010CC00022B48D0022B67DC002B02D0012B21D045
:1010DC0062E000221021374800F007FC4FF48061D9
:1010EC004FF40070FFF7BEFE01226021314800F082
:1010FC00FCFB364B1B68012B50D1334B02221A7070
:10110C002E4B1C68FFF70EFD034619462046FFF7D1
:10111C0049FD43E000222021264800F0E6FB4FF475
:10112C0080614FF40070FFF79DFE01225021214891
:10113C0000F0DBFB254B1B68012B31D1224B00222D
:10114C001A701F4B1C68FFF7EDFC0346194620462E
:10115C00FFF728FD24E000224021164800F0C5FBD3
:10116C004FF480614FF40070FFF77CFE01223021B8
:10117C00104800F0BAFB154B1B68012B12D1124B17
:10118C0001221A700F4B1C68FFF7CCFC0346194662
:10119C002046FFF707FD05E000BF04E000BF02E0BA
:1011AC0000BF00E000BF00BFB0BD00BFD34D621058
:1011BC00A000002000080140840000209C000020BA
:1011CC0094000020980000200C0000208C000020CF
:1011DC0080B500AF002212210C4800F086FB0122E2
:1011EC006C210A4800F081FB094B1B68012B0BD1C9
:1011FC00FFF798FC034619466420FFF7BBFC4FF43D
:10120C00F061024800F089FB00BF80BD000801407E
:10121C008800002080B500AF002224210C4800F08B
:10122C0064FB01225A210A4800F05FFB094B1B6842
:10123C00012B0BD1FFF776FC034619466420FFF710
:10124C0099FC4FF4F061024800F067FB00BF80BDD1
:10125C00000801408800002080B500AF0022482122
:10126C000C4800F042FB012236210A4800F03DFBFD
:10127C00094B1B68012B0BD1FFF754FC0346194695
:10128C006420FFF777FC4FF4F061024800F045FB57
:10129C0000BF80BD0008014088000020FFF794FDCE
:1012AC000B480C490C4A002302E0D458C4500433B8
:1012BC00C4188C42F9D3094A094C002301E013608D
:1012CC000432A242FBD301F005FBFFF7FBFA704797
:1012DC000000002018000020B02A00081800002090
:1012EC00F4000020FEE7000080B500AF084B1B683F
:1012FC00074A43F010031360032000F023F90F207A
:10130C0000F008F8FFF7D8FC0023184680BD00BF9A
:10131C000020024080B582B000AF7860124B1A6892
:10132C00124B1B7819464FF47A73B3FBF1F3B2FBF3
:10133C00F3F3184600F03BF90346002B01D00123D0
:10134C000EE07B680F2B0AD8002279684FF0FF3033
:10135C0000F003F9064A7B681360002300E00123C8
:10136C0018460837BD4680BD080000201400002038
:10137C001000002080B400AF054B1B781A46054BBB
:10138C001B681344034A136000BFBD4680BC704702
:10139C0014000020F000002080B400AF024B1B684A
:1013AC001846BD4680BC7047F000002080B485B064
:1013BC0000AF78607B6803F00703FB600C4BDB68C5
:1013CC00BB60BA684FF6FF031340BB60FB681A02A0
:1013DC00BB68134343F0BF6343F40033BB60044A60
:1013EC00BB68D36000BF1437BD4680BC704700BFDC
:1013FC0000ED00E080B400AF044BDB681B0A03F087
:10140C0007031846BD4680BC704700BF00ED00E0E6
:10141C0080B483B000AF0346FB7197F90730002B03
:10142C000BDBFB7903F01F02064997F907305B09C8
:10143C00012000FA02F241F8232000BF0C37BD4610
:10144C0080BC704700E100E080B483B000AF03467D
:10145C003960FB7197F90730002B0ADB3B68DAB275
:10146C000C4997F907301201D2B20B4483F80023D0
:10147C000AE03B68DAB20849FB7903F00F03043B3E
:10148C001201D2B20B441A7600BF0C37BD4680BC99
:10149C00704700BF00E100E000ED00E080B489B0CF
:1014AC0000AFF860B9607A60FB6803F00703FB617A
:1014BC00FB69C3F10703042B28BF0423BB61FB6941
:1014CC000433062B02D9FB69033B00E000237B614C
:1014DC004FF0FF32BB6902FA03F3DA43BB681A40E0
:1014EC007B699A404FF0FF317B6901FA03F3D943D2
:1014FC007B680B40134318462437BD4680BC7047AD
:10150C0080B582B000AF78607B68013BB3F1807F1F
:10151C0001D301230FE00A4A7B68013B53600F2182
:10152C004FF0FF30FFF790FF054B00229A60044B01
:10153C0007221A60002318460837BD4680BD00BF3D
:10154C0010E000E080B582B000AF78607868FFF7FB
:10155C002DFF00BF0837BD4680BD80B586B000AFFB
:10156C000346B9607A60FB7300237B61FFF742FF8F
:10157C0078617A68B9687869FFF790FF024697F945
:10158C000F3011461846FFF75FFF00BF1837BD46F6
:10159C0080BD80B582B000AF0346FB7197F9073070
:1015AC001846FFF735FF00BF0837BD4680BD80B534
:1015BC0082B000AF78607868FFF7A2FF0346184648
:1015CC000837BD4680BD000080B48BB000AF78609A
:1015DC00396000237B6200233B6248E101227B6A75
:1015EC0002FA03F3FB613B681B68FA691340BB61A9
:1015FC00BA69FB699A4240F037813B685B68A34A41
:10160C0093425ED0A14A934275D8A14A934258D0D6
:10161C009F4A93426FD89F4A934252D09D4A93421D
:10162C0069D89D4A93424CD09B4A934263D89B4ABB
:10163C00934246D0994A93425DD8122B2AD8122B4A
:10164C0059D801A252F823F0CF160008A9160008A9
:10165C00BB160008FD160008031700080317000846
:10166C0003170008031700080317000803170008E6
:10167C0003170008031700080317000803170008D6
:10168C00031700080317000803170008B116000819
:10169C00C5160008824A934213D02CE03B68DB68E5
:1016AC003B6229E03B68DB6804333B6224E03B6827
:1016BC00DB6808333B621FE03B68DB680C333B6242
:1016CC001AE03B689B68002B02D104233B6213E0B9
:1016DC003B689B68012B05D108233B627B68FA6948
:1016EC001A6109E008233B627B68FA695A6103E0DE
:1016FC0000233B6200E000BFBB69FF2B01D87B6875
:10170C0001E07B6804337B61BB69FF2B02D87B6AE9
:10171C009B0002E07B6A083B9B003B617B691A687B
:10172C000F213B6901FA03F3DB431A40396A3B6929
:10173C0001FA03F31A437B691A603B685B6803F098
:10174C008053002B00F09080564B9B69554A43F018
:10175C0001039361534B9B6903F00103BB60BB68AE
:10176C00514A7B6A9B08023352F82330FB607B6A38
:10177C0003F003039B000F2202FA03F3DB43FA6826
:10178C001340FB607B68494A93420DD07B68484A02
:10179C00934207D07B68474A934201D1022304E06D
:1017AC00032302E0012300E000237A6A02F0030223
:1017BC0092009340FA681343FB603B497B6A9B0899
:1017CC000233FA6841F823203B685B6803F480130A
:1017DC00002B06D0384B9A683749BB6913438B6092
:1017EC0006E0354B9A68BB69DB43334913408B6089
:1017FC003B685B6803F40013002B06D02E4BDA68B1
:10180C002D49BB691343CB6006E02B4BDA68BB69EF
:10181C00DB4329491340CB603B685B6803F400331E
:10182C00002B06D0244B5A682349BB6913434B60E9
:10183C0006E0214B5A68BB69DB431F4913404B60E0
:10184C003B685B6803F48033002B06D01A4B1A6894
:10185C001949BB6913430B6006E0174B1A68BB6947
:10186C00DB43154913400B607B6A01337B623B6899
:10187C001A687B6A22FA03F3002B7FF4AFAE00BF29
:10188C0000BF2C37BD4680BC704700BF0000321033
:10189C000000311000002210000021100000121076
:1018AC00000011100010024000000140000801402F
:1018BC00000C0140001001400004014080B485B0D0
:1018CC0000AF78600B467B807B689A687B881340FE
:1018DC00002B02D00123FB7301E00023FB73FB7B85
:1018EC0018461437BD4680BC704780B483B000AF37
:1018FC0078600B467B8013467B707B78002B03D083
:10190C007A887B681A6103E07B881A047B681A6109
:10191C0000BF0C37BD4680BC704780B485B000AFAB
:10192C0078600B467B807B68DB68FB607A88FB68A1
:10193C0013401A04FB68D9437B880B401A437B681D
:10194C001A6100BF1437BD4680BC704780B586B0A5
:10195C0000AF78607B68002B01D101236CE27B68BF
:10196C001B6803F00103002B00F08780924B5B682F
:10197C0003F00C03042B0CD08F4B5B6803F00C03AF
:10198C00082B12D18C4B5B6803F48033B3F5803F8A
:10199C000BD1894B1B6803F40033002B6CD07B6894
:1019AC005B68002B68D1012346E27B685B68B3F56A
:1019BC00803F06D1804B1B687F4A43F48033136011
:1019CC002EE07B685B68002B0CD17B4B1B687A4A42
:1019DC0023F480331360784B1B68774A23F48023FD
:1019EC0013601DE07B685B68B3F5A02F0CD1724BC4
:1019FC001B68714A43F4802313606F4B1B686E4A5B
:101A0C0043F4803313600BE06B4B1B686A4A23F47E
:101A1C0080331360684B1B68674A23F48023136080
:101A2C007B685B68002B13D0FFF7B6FC386108E0CD
:101A3C00FFF7B2FC02463B69D31A642B01D903238E
:101A4C00FAE15D4B1B6803F40033002BF0D014E07B
:101A5C00FFF7A2FC386108E0FFF79EFC02463B69E9
:101A6C00D31A642B01D90323E6E1534B1B6803F40F
:101A7C000033002BF0D100E000BF7B681B6803F043
:101A8C000203002B63D04C4B5B6803F00C03002B60
:101A9C000BD0494B5B6803F00C03082B1CD1464B55
:101AAC005B6803F48033002B16D1434B1B6803F0A7
:101ABC000203002B05D07B681B69012B01D001238D
:101ACC00BAE13D4B1B6823F0F8027B685B69DB00D5
:101ADC00394913430B603AE07B681B69002B20D01B
:101AEC00364B01221A60FFF757FC386108E0FFF70C
:101AFC0053FC02463B69D31A022B01D903239BE109
:101B0C002D4B1B6803F00203002BF0D02A4B1B68F3
:101B1C0023F0F8027B685B69DB00274913430B60F9
:101B2C0015E0264B00221A60FFF736FC386108E0FE
:101B3C00FFF732FC02463B69D31A022B01D903236F
:101B4C007AE11D4B1B6803F00203002BF0D17B687C
:101B5C001B6803F00803002B3AD07B689B69002BB1
:101B6C0019D0174B01221A60FFF716FC386108E0F8
:101B7C00FFF712FC02463B69D31A022B01D903234F
:101B8C005AE10D4B5B6A03F00203002BF0D00120ED
:101B9C0000F09AFA1CE00A4B00221A60FFF7FCFBDB
:101BAC0038610FE0FFF7F8FB02463B69D31A022BB2
:101BBC0008D9032340E100BF00100240000042425C
:101BCC00800442429E4B5B6A03F00203002BE9D176
:101BDC007B681B6803F00403002B00F0A680002335
:101BEC00FB75974BDB6903F08053002B0DD1944BA5
:101BFC00DB69934A43F08053D361914BDB6903F06B
:101C0C008053BB60BB680123FB758E4B1B6803F4D0
:101C1C008073002B18D18B4B1B688A4A43F480735A
:101C2C001360FFF7B9FB386108E0FFF7B5FB02461C
:101C3C003B69D31A642B01D90323FDE0814B1B684C
:101C4C0003F48073002BF0D07B68DB68012B06D18A
:101C5C007B4B1B6A7A4A43F0010313622DE07B68CD
:101C6C00DB68002B0CD1764B1B6A754A23F0010301
:101C7C001362734B1B6A724A23F0040313621CE059
:101C8C007B68DB68052B0CD16D4B1B6A6C4A43F0EF
:101C9C00040313626A4B1B6A694A43F00103136223
:101CAC000BE0674B1B6A664A23F001031362644B1B
:101CBC001B6A634A23F0040313627B68DB68002B06
:101CCC0015D0FFF769FB38610AE0FFF765FB0246A8
:101CDC003B69D31A41F28832934201D90323ABE01A
:101CEC00574B1B6A03F00203002BEED014E0FFF7F6
:101CFC0053FB38610AE0FFF74FFB02463B69D31AEE
:101D0C0041F28832934201D9032395E04C4B1B6A74
:101D1C0003F00203002BEED1FB7D012B05D1484BC8
:101D2C00DB69474A23F08053D3617B68DB69002B66
:101D3C0000F08180424B5B6803F00C03082B61D0F0
:101D4C007B68DB69022B46D13F4B00221A60FFF700
:101D5C0023FB386108E0FFF71FFB02463B69D31AEF
:101D6C00022B01D9032367E0354B1B6803F000738A
:101D7C00002BF0D17B681B6AB3F5803F08D1304B48
:101D8C005B6823F400327B689B682D4913434B60DE
:101D9C002B4B5B6823F474127B68196A7B685B6A53
:101DAC000B43274913434B60274B01221A60FFF763
:101DBC00F3FA386108E0FFF7EFFA02463B69D31AF1
:101DCC00022B01D9032337E01D4B1B6803F0007372
:101DDC00002BF0D02FE01C4B00221A60FFF7DCFA2E
:101DEC00386108E0FFF7D8FA02463B69D31A022B98
:101DFC0001D9032320E0124B1B6803F00073002B66
:101E0C00F0D118E07B68DB69012B01D1012313E0D1
:101E1C000B4B5B68FB60FB6803F480327B681B6ACE
:101E2C009A4206D1FB6803F470127B685B6A9A4293
:101E3C0001D0012300E0002318461837BD4680BDB1
:101E4C0000100240007000406000424280B584B037
:101E5C0000AF786039607B68002B01D10123D0E0A2
:101E6C006A4B1B6803F007033A689A4210D9674B18
:101E7C001B6823F0070265493B6813430B60634BF7
:101E8C001B6803F007033A689A4201D00123B8E0BB
:101E9C007B681B6803F00203002B20D07B681B6857
:101EAC0003F00403002B05D0594B5B68584A43F4EC
:101EBC00E06353607B681B6803F00803002B05D0BC
:101ECC00534B5B68524A43F460535360504B5B680E
:101EDC0023F0F0027B689B684D4913434B607B6891
:101EEC001B6803F00103002B40D07B685B68012B5F
:101EFC0007D1474B1B6803F40033002B15D101238A
:101F0C007FE07B685B68022B07D1414B1B6803F0B9
:101F1C000073002B09D1012373E03D4B1B6803F0C8
:101F2C000203002B01D101236BE0394B5B6823F0DA
:101F3C0003027B685B68364913434B60FFF72CFA4E
:101F4C00F8600AE0FFF728FA0246FB68D31A41F260
:101F5C008832934201D9032353E02D4B5B6803F085
:101F6C000C027B685B689B009A42EBD1274B1B6889
:101F7C0003F007033A689A4210D2244B1B6823F0F3
:101F8C00070222493B6813430B60204B1B6803F08C
:101F9C0007033A689A4201D0012332E07B681B6840
:101FAC0003F00403002B08D0194B5B6823F4E062A8
:101FBC007B68DB68164913434B607B681B6803F036
:101FCC000803002B09D0124B5B6823F460527B682A
:101FDC001B69DB000E4913434B6000F021F80246ED
:101FEC000B4B5B681B0903F00F030A49CB5C22FA0D
:101FFC0003F3094A1360094B1B681846FFF78AF96B
:10200C00002318461037BD4680BD00BF002002409B
:10201C0000100240842A0008080000201000002054
:10202C0080B487B000AF0023FB600023BB600023AB
:10203C007B6100237B6000233B611E4B5B68FB6074
:10204C00FB6803F00C03042B02D0082B03D027E011
:10205C00194B3B6127E0FB689B0C03F00F03174AFD
:10206C00D35C7B60FB6803F48033002B10D0114BE6
:10207C005B685B0C03F00103114AD35CBB607B68AB
:10208C000D4A02FB03F2BB68B2FBF3F37B6104E085
:10209C007B680C4A02FB03F37B617B693B6102E0CA
:1020AC00054B3B6100BF3B6918461C37BD4680BCE5
:1020BC00704700BF0010024000127A00942A0008FA
:1020CC00A42A000800093D0080B485B000AF7860F8
:1020DC000A4B1B680A4AA2FB03235B0A7A6802FBC1
:1020EC0003F3FB6000BFFB685A1EFA60002BF9D1AA
:1020FC0000BF00BF1437BD4680BC704708000020ED
:10210C00D34D621080B582B000AF78607B68002B35
:10211C0001D1012341E07B6893F83D30DBB2002B09
:10212C0006D17B68002283F83C207868FEF7F6FD28
:10213C007B68022283F83D207B681A687B68043335
:10214C001946104600F06EFA7B68012283F846208F
:10215C007B68012283F83E207B68012283F83F20B4
:10216C007B68012283F840207B68012283F84120A0
:10217C007B68012283F842207B68012283F843208C
:10218C007B68012283F844207B68012283F8452078
:10219C007B68012283F83D20002318460837BD4692
:1021AC0080BD000080B485B000AF78607B6893F888
:1021BC003D30DBB2012B01D0012335E07B680222DC
:1021CC0083F83D207B681B68DA687B681B6842F0EB
:1021DC000102DA607B681B68164A934209D07B685F
:1021EC001B68B3F1804F04D07B681B68124A934282
:1021FC0011D17B681B689B6803F00703FB60FB68CD
:10220C00062B10D07B681B681A687B681B6842F031
:10221C0001021A6007E07B681B681A687B681B6800
:10222C0042F001021A60002318461437BD4680BCE8
:10223C00704700BF002C01400004004080B582B004
:10224C0000AF78607B681B681B6903F00203022BEC
:10225C0022D17B681B68DB6803F00203022B1BD1C5
:10226C007B681B686FF002021A617B6801221A7787
:10227C007B681B689B6903F00303002B03D0786811
:10228C0000F0B4F905E0786800F0A7F9786800F080
:10229C00B6F97B6800221A777B681B681B6903F010
:1022AC000403042B22D17B681B68DB6803F0040356
:1022BC00042B1BD17B681B686FF004021A617B68CE
:1022CC0002221A777B681B689B6903F44073002B0E
:1022DC0003D0786800F08AF905E0786800F07DF9A1
:1022EC00786800F08CF97B6800221A777B681B6891
:1022FC001B6903F00803082B22D17B681B68DB6881
:10230C0003F00803082B1BD17B681B686FF00802D5
:10231C001A617B6804221A777B681B68DB6903F0FF
:10232C000303002B03D0786800F060F905E07868AF
:10233C0000F053F9786800F062F97B6800221A7794
:10234C007B681B681B6903F01003102B22D17B6880
:10235C001B68DB6803F01003102B1BD17B681B6818
:10236C006FF010021A617B6808221A777B681B6871
:10237C00DB6903F44073002B03D0786800F036F966
:10238C0005E0786800F029F9786800F038F97B6886
:10239C0000221A777B681B681B6903F00103012B71
:1023AC000ED17B681B68DB6803F00103012B07D19E
:1023BC007B681B686FF001021A617868FEF7A0FB5E
:1023CC007B681B681B6903F08003802B0ED17B6834
:1023DC001B68DB6803F08003802B07D17B681B68CC
:1023EC006FF080021A61786800F06BFA7B681B68EA
:1023FC001B6903F04003402B0ED17B681B68DB6824
:10240C0003F04003402B07D17B681B686FF0400240
:10241C001A61786800F0FCF87B681B681B6903F094
:10242C002003202B0ED17B681B68DB6803F0200394
:10243C00202B07D17B681B686FF020021A6178682B
:10244C0000F036FA00BF0837BD4680BD80B584B0B9
:10245C0000AF786039600023FB737B6893F83C30E5
:10246C00012B01D10223B4E07B68012283F83C20CC
:10247C007B68022283F83D207B681B689B68BB60ED
:10248C00BB6823F07703BB60BB6823F47F43BB605E
:10249C007B681B68BA689A603B681B68B3F5005F81
:1024AC003ED0B3F5005F00F28780B3F5805F00F09B
:1024BC008680B3F5805F7FD8702B1AD0702B7BD8B9
:1024CC00602B50D0602B77D8502B3CD0502B73D82E
:1024DC00402B58D0402B6FD8302B64D0302B6BD87E
:1024EC00202B60D0202B67D8002B5CD0102B5AD01F
:1024FC0062E07B6818683B6899683B685A683B687F
:10250C00DB6800F05EF97B681B689B68BB60BB688E
:10251C0043F07703BB607B681B68BA689A604FE036
:10252C007B6818683B6899683B685A683B68DB684D
:10253C0000F047F97B681B689A687B681B6842F45B
:10254C0080429A603CE07B6818683B6859683B683D
:10255C00DB681A4600F0BEF87B681B6850211846F1
:10256C0000F015F92CE07B6818683B6859683B68EB
:10257C00DB681A4600F0DCF87B681B6860211846A3
:10258C0000F005F91CE07B6818683B6859683B68EB
:10259C00DB681A4600F09EF87B681B6840211846E1
:1025AC0000F0F5F80CE07B681A683B681B6819466C
:1025BC00104600F0ECF803E00123FB7300E000BFD1
:1025CC007B68012283F83D207B68002283F83C2045
:1025DC00FB7B18461037BD4680BD80B483B000AF7E
:1025EC00786000BF0C37BD4680BC704780B483B0A8
:1025FC0000AF786000BF0C37BD4680BC704780B41C
:10260C0083B000AF786000BF0C37BD4680BC70470C
:10261C0080B483B000AF786000BF0C37BD4680BC7F
:10262C007047000080B485B000AF786039607B687B
:10263C001B68FB607B68254A934207D07B68B3F12B
:10264C00804F03D07B68224A934208D1FB6823F069
:10265C007003FB603B685B68FA681343FB607B6844
:10266C001A4A934207D07B68B3F1804F03D07B6842
:10267C00174A934208D1FB6823F44073FB603B6814
:10268C00DB68FA681343FB60FB6823F080023B684D
:10269C005B691343FB607B68FA681A603B689A6855
:1026AC007B68DA623B681A687B689A627B68074AC7
:1026BC00934203D13B681A697B681A637B680122D9
:1026CC005A6100BF1437BD4680BC7047002C0140D6
:1026DC000004004080B487B000AFF860B9607A6045
:1026EC00FB681B6A7B61FB681B6A23F00102FB68B9
:1026FC001A62FB689B693B613B6923F0F0033B6109
:10270C007B681B013A6913433B617B6923F00A0325
:10271C007B617A69BB6813437B61FB683A699A6198
:10272C00FB687A691A6200BF1C37BD4680BC7047D3
:10273C0080B487B000AFF860B9607A60FB681B6A40
:10274C007B61FB681B6A23F01002FB681A62FB6852
:10275C009B693B613B6923F470433B617B681B03C2
:10276C003A6913433B617B6923F0A0037B61BB682F
:10277C001B017A6913437B61FB683A699A61FB68B8
:10278C007A691A6200BF1C37BD4680BC704780B4A2
:10279C0085B000AF786039607B689B68FB60FB6834
:1027AC0023F07003FB603A68FB68134343F00703A4
:1027BC00FB607B68FA689A6000BF1437BD4680BC2A
:1027CC00704780B487B000AFF860B9607A603B6046
:1027DC00FB689B687B617B6923F47F437B613B686F
:1027EC001A027B681A43BB6813437A6913437B61F3
:1027FC00FB687A699A6000BF1C37BD4680BC704785
:10280C0080B485B000AF786039607B6893F83C3059
:10281C00012B01D1022341E07B68012283F83C208B
:10282C007B68022283F83D207B681B685B68FB6039
:10283C007B681B689B68BB60FB6823F07003FB60C4
:10284C003B681B68FA681343FB607B681B68FA687B
:10285C005A607B681B68144A934209D07B681B68DA
:10286C00B3F1804F04D07B681B68104A93420CD1A3
:10287C00BB6823F08003BB603B685B68BA6813439A
:10288C00BB607B681B68BA689A607B68012283F81E
:10289C003D207B68002283F83C2000231846143727
:1028AC00BD4680BC704700BF002C014000040040B6
:1028BC0080B483B000AF786000BF0C37BD4680BCDD
:1028CC00704780B483B000AF786000BF0C37BD4652
:1028DC0080BC704770B500260C4D0D4C641BA410C9
:1028EC00A64209D100F030F800260A4D0A4C641BB0
:1028FC00A410A64205D170BD55F8043B984701368B
:10290C00EEE755F8043B98470136F2E7A82A000891
:10291C00A82A0008A82A0008AC2A00080A449142F8
:10292C0000F1FF3300D1704710B511F8014B914203
:10293C0003F8014FF9D110BD03460244934200D174
:10294C00704703F8011BF9E7F8B500BFF8BC08BCE9
:10295C009E467047F8B500BFF8BC08BC9E46704751
:10296C00000000000000000000000000000000005B
:10297C000000000000000000010000000100000049
:10298C000000000000000000010000000100000039
:10299C000100000001000000000000000000000029
:1029AC000100000000000000000000000100000019
:1029BC00000000000000000000000000000000000B
:1029CC0000000000010000000100000000000000F9
:1029DC0001000000000000000000000001000000E9
:1029EC0001000000000000000000000000000000DA
:1029FC0001000000000000000000000001000000C9
:102A0C0000000000000000000000000001000000B9
:102A1C0000000000000000000000000000000000AA
:102A2C00000000000000000000000000000000009A
:102A3C000100000001000000010000000100000086
:102A4C00000000000000000000000000000000007A
:102A5C00000000000000000000000000000000006A
:102A6C000000000000000000000000000100000059
:102A7C00000000000000000000000000000000004A
:102A8C0001020304060708090203040506070809E6
:0C2A9C000A0B0C0D0E0F101001020000C0
:042AA80031010008F0
:042AAC000D01000810
:102AB00001000200040000000024F40002000000F5
:082AC0001000000001000000FD
:04000005080012A934
:00000001FF
